:02000000EC29E9
:10000800CF00030E830196000A0897008A01400872
:100018008C000B1D1D28930A950A13083D3A031DF1
:1000280018288D0A9301950115083C3A031D1D28CF
:1000380095010B110C08C00017088A00160E8300E2
:06004800CF0E4F0E09006F
:10004E0083120313C8010830CC00400DC80D4408BC
:10005E00C80203183428C8070310C00DCC0B2C2877
:02006E00080088
:1000700083129A011E301A02031848289A0A273060
:10008000CC00F530CD00CD0B4328CC0B43283A28CB
:02009000080066
:100092000A308312C4001A08C000272040089B00BF
:1000A2000A30C4001A08C00027204808C0000230E5
:1000B2008500400886000230CC004B30CD00CD0BCD
:1000C2006028CC0B6028013085001B0886000230B6
:1000D200CC004B30CD00CD0B6C28CC0B6C2808002B
:1000E2000A308312C4001A08C000272040089B006F
:1000F2000A30C4001A08C00027204808C00008308F
:100102008500400886000230CC004B30CD00CD0B7C
:100112008828CC0B8828043085001B088600023012
:10012200CC004B30CD00CD0B9428CC0B942808008A
:0C013200831210088A000F0882000800E9
:10013E0002308312CB004530CC00A930CD00CD0B60
:10014E00A628CC0BA628CB0BA628000000009501F4
:10015E00940191019201861F4F299201061EEA28F1
:10016E001108003A031DEA2815089A007120140898
:10017E009A004920861BD4280230CB004530CC0093
:10018E00A930CD00CD0BC928CC0BC928CB0BC92863
:10019E000000000001309100EA28861AE92802309A
:1001AE00CB004530CC00A930CD00CD0BDC28CC0BDC
:1001BE00DC28CB0BDC2800000000950194010130F7
:1001CE009200EA28B5280230CB004530CC00A93089
:1001DE00CD00CD0BF028CC0BF028CB0BF028000077
:1001EE000000061E3B291108003A031D3B29120888
:1001FE00003A031D3B2915089A00712014089A0035
:10020E0049203C301502031C0E29940A95013C30FE
:10021E001402031C142994019501861B2729023010
:10022E00CB004530CC00A930CD00CD0B1C29CC0B1A
:10023E001C29CB0B1C2900000000013091003B292A
:10024E00861A3A290230CB004530CC00A930CD00B9
:10025E00CD0B2F29CC0B2F29CB0B2F290000000003
:10026E00950194013B29F8281108013A031D4029F4
:10027E004F290230CB004530CC00A930CD00CD0B3C
:10028E004629CC0B4629CB0B462900000000B2288C
:10029E000230CB004530CC00A930CD00CD0B552916
:0E02AE00CC0B5529CB0B552900000000080091
:1002BC0083120D0898000E0899000230CB004530CF
:1002CC00CC00A930CD00CD0B6929CC0B6929CB0B07
:1002DC00692900000000861F8E2918089A007120D9
:1002EC003820861A88290230CB004530CC00A93042
:1002FC00CD00CD0B7F29CC0B7F29CB0B7F290000A8
:10030C000000980A3C301802031C8D2998017129B1
:10031C000230CB004530CC00A930CD00CD0B942958
:10032C00CC0B9429CB0B942900000000861FB92913
:10033C0019089A0049203820861AB3290230CB00BC
:10034C004530CC00A930CD00CD0BAA29CC0BAA2965
:10035C00CB0BAA2900000000990A3C301902031C9F
:10036C00B82999019C290230CB004530CC00A9302A
:10037C00CD00CD0BBF29CC0BBF29CB0BBF29000067
:0C038C00000018088D0019088E00080001
:1003980083120D089A0071200E089A0049203C30FB
:1003A8000D02031CD9298E0A8D010E083B3C031847
:0803B800DF298E018D01080010
:1003C00099208A110A128000840A8F0A0319900A60
:0803D000C003031DE029080031
:1003D80083128D013B308E00153083168100A430C6
:1003E8008B0083128101930183168501B03086004A
:1003F800831285018601861B022A5E21061A052AB8
:080408009F20CC21FF29072AE7
:02400E00FA3F77
:00000001FF
